:100000000C9446000C9450000C9450000C9450003A
:100010000C9450000C9450000C9450000C94500020
:100020000C9450000C9450000C9450000C94500010
:100030000C9450000C9450000C9450000C94500000
:100040000C9450000C9450000C9450000C945000F0
:100050000C9450000C9450000C9450000C945000E0
:100060000C9450000C9450000C9450000C945000D0
:100070000C9450000C9450000C9450000C945000C0
:100080000C9450000C9450000C94500011241FBE8E
:10009000CFEFD0E1DEBFCDBF0E94C9020C94F802C1
:1000A0000C9400008FE080937000E1E7F0E0808125
:1000B0008C7F8083089584EA80937400809174001B
:1000C00087FFFCCF8091710090E0887F883009F431
:1000D00091E0892F089584EA8093740080917400E0
:1000E00087FFFCCF8091710090E0887F803109F418
:1000F00091E0892F08958093730084E880937400C1
:100100008091740087FFFCCF8091710090E0887F20
:10011000883109F491E0892F08959C018070907FC7
:100120008050904F81F41092730084E880937400A3
:100130008091740087FFFCCF80917100887F8831A7
:1001400011F090E010C02093730084E88093740055
:100150008091740087FFFCCF8091710090E0887FD0
:10016000883109F491E0892F08958093730084E821
:10017000809374008091740087FFFCCF80917100A0
:1001800090E0887F803409F491E0892F089580936E
:10019000730084E8809374008091740087FFFCCF23
:1001A0008091710090E0887F883109F491E0892F77
:1001B00008958093730084E88093740080917400A4
:1001C00087FFFCCF8091710090E0887F883209F42E
:1001D00091E0892F0895FC0184E880937400809158
:1001E000740087FFFCCF80917100887F883511F003
:1001F00080E0089580917300808381E00895FC0180
:1002000084EC809374008091740087FFFCCF809110
:100210007100887F803511F080E00895809173002F
:10022000808381E008950F931F939C01162F042F64
:1002300084EA809374008091740087FFFCCF8091E2
:100240007100887F8830C9F41CC01093730084E863
:10025000809374008091740087FFFCCF80917100BF
:10026000887F883251F413C08091740087FFFCCFDF
:1002700080917100887F883281F080E01F910F911A
:100280000895C9010E948D008823F9F6F6CF0093E6
:10029000730084E880937400E7CF84E9809374004E
:1002A00081E0ECCF0F931F93CF93DF93FC01162FC8
:1002B000042FE90184EA809374008091740087FF21
:1002C000FCCF80917100887F8830A9F53AC01093E7
:1002D000730084E8809374008091740087FFFCCFE2
:1002E00080917100887F883231F531C0809174002F
:1002F00087FFFCCF80917100887F8031E1F42BC0B3
:100300008091740087FFFCCF80917100887F8034DA
:1003100091F427C08091740087FFFCCF8091710019
:10032000887F883541F480917300888384E98093C5
:10033000740081E001C080E0DF91CF911F910F91A7
:100340000895CF010E948D00882309F6F4CF84EA36
:1003500080937400CBCF0093730084E88093740083
:10036000CFCF84E880937400D5CFFF920F931F9373
:10037000CF93DF93FC01162FF42EE90184EA8093DA
:1003800074008091740087FFFCCF80917100887F9A
:10039000883009F058C05EC01093730084E88093E1
:1003A00074008091740087FFFCCF80917100887F7A
:1003B000883209F048C055C08091740087FFFCCF97
:1003C00080917100887F8031F1F54FC08091740079
:1003D00087FFFCCF80917100887F8034A1F540E0D9
:1003E000202F30E02150304054EC12C05093740064
:1003F0008091740087FFFCCF80917100887F8035E9
:1004000011F580917300FE01E40FF11D80834F5FB1
:10041000842F90E0821793074CF384E88093740054
:100420008091740087FFFCCF80917100887F8835B0
:1004300051F480917300C40FD11D888384E98093A7
:10044000740081E001C080E0DF91CF911F910F9196
:10045000FF900895CF010E948D00882309F09CCF62
:10046000F2CF84EA80937400A7CFF092730084E8FF
:1004700080937400ABCF282F462F82EA90E0622F42
:100480000E941301811181E008950F93582F9B0161
:10049000042F82EA90E0652F43EA0E94B5018111A2
:1004A00081E00F910895CF93DF93EC0182E0BE01CC
:1004B00043E00E94450288818F7788838823B1F3C7
:1004C00089818F7789838A818F738A832881822F9C
:1004D00082958F703AE0839FC00111242F70280FFE
:1004E00028832981822F82958F70839FC0011124D8
:1004F0002F70280F29832A81822F82958F70839FE6
:10050000C00111242F70280F2A83DF91CF91089505
:10051000EF92FF920F931F93282F562F6AE00E94AD
:10052000EC02382F3295307F822F0E94EC02292F67
:10053000852F0E94EC02082F0295007F852F0E94D4
:10054000EC02E92E842F0E94EC02182F1295107FE6
:10055000842F0E94EC02F92E320F84E0632F0E9458
:100560003B020E0D83E0602F0E943B021F0D82E0D4
:10057000612F0E943B021F910F91FF90EF90089511
:1005800080E060E00E943B0281E062E10E943B0269
:1005900008950F931F93DF93CF9300D00F92CDB7A1
:1005A000DEB78FEF8ABB1BBA8FE08093700080911B
:1005B00071008C7F809371000E94C00280E060E037
:1005C00040E00E9488028E010F5F1F4FC8010E9409
:1005D000530289818BBBFACF991B79E004C0991F24
:1005E000961708F0961B881F7A95C9F7809508958D
:0405F000F894FFCFAD
:00000001FF
