:10003E0050434638353633204578616D706C650017
:10004E005365742054696D653A204F4B00526561BB
:10005E00642054696D653A002564323A2564323A5B
:04006E0025643200D3
:1007930043D40C53F1F343B167E4FF0FBFFFFCE510
:0A07A300B130E7FB43A901E4F5B211
:0107AD002229
:0408680043B2032272
:1006B3005388CF5389F0438901438E04E4FDFCC37F
:1006C300ED9FEC9E5016C28C758CD1758A20D28C0E
:0C06D300308DFDC28D0DBD00010C80E3D8
:0106DF0022F8
:10070D0012085AED54F0FF12085AEDC454F0FF12BE
:0D071D00085A7F4B7E0012072A7F0A7E00DB
:0B072A00EF1FAC0670011E4C70F622A1
:1007DF0043E107E4F5A57590FF75C15D43C1801234
:0507EF0008070207AE3F
:0F080700438E08758920758DD8858D8BD28E22F2
:1007AE00E4F591538EBF75939E75925885939585FA
:0907BE00929443E6804391042269
:0608620043E601D2AF22C3
:1007550020901B75E240C291E4FF0FBFFFFCD291D0
:0E0765003091FDE4FF0FBF0AFCE4F5E280E2F4
:010773002263
:1007C7002001FDD2018F0A8D0B8B0C852F10C200E3
:0807D700C2C4D2C52001FD22BD
:060003008B2D8A2E892FCF
:100009002001FDD2018F0A853011D200C2C4D2C5A8
:100019002001FDE4FFEFC395305016740D2FF8E66B
:10002900AB2DAA2EA92F8F827583001202450F804E
:01003900E4E2
:01003A0022A3
:03003B000204F6C6
:0904F600C0E0C0D075D000C000C8
:1004FF00C20220C267E5C054F02480603A24C06075
:10050F001124E07053850AC2C2C57508017509012F
:10051F00804C30C11C200046E508D39510500C7458
:10052F000A2508F8E6F5C205088033D2C4C2018057
:10053F002DD2C4D2C58027E509C39511740C500B79
:10054F002509F8A6C2D2C1050980132509F8A6C24C
:10055F00C201C2C1D2C48006D2028002D2023002CE
:10056F000E53C17F43C180C2C5C2C4C2C1C201C242
:01057F00C0BB
:07058000D000D0D0D0E03222
:030073000208255B
:0E08250053C17F43C18053917FC2C5C20132CF
:0E083300AB05AD07752F027FA27E000207C73E
:100735008B288A29892AAD07752F01E4FB7FA2FE44
:100745001207C7AB28AA29A92A7530040F0200038E
:100587008B258A2689277F02120735AB25AA26A93C
:10059700271201ED547F120233AB25E5272401F919
:1005A700E43526FA1201ED547F120233AB25E52715
:1005B7002402F9E43526FA1201ED543F120233AB57
:1005C70025AA26A9271201EDFFC4540F75F00AA426
:1005D700FEEF540F2E120233AB25AA26A92790004F
:1005E70001120206FFC4540F75F00AA4FEEF540F60
:1005F7002E900001120245900002120206FFC45419
:100607000F75F00AA4FEEF540F2E90000202024568
:10061700AC03AA05EF75F00A84C454F0FEEF75F039
:100627000A84E5F02EFFEA75F00A84C454F0FEEA66
:1006370075F00A84E5F02EFAEC75F00A84C454F0DC
:10064700FEEC75F00A84E5F02EFCAD077F04120876
:0E06570033AD027F03120833FD7F0202083329
:0D084100E4FDFF1208337D127F0102083331
:1007F40043E10343D48043A4C175A14075F8017556
:03080400A22F22FE
:1006E0007F301208167F0C1208167F011208167F41
:1006F000021208167F801208167F027E001206B3CF
:0D0700007F407D207B007A0079480202BC1A
:08085A00C2FF8FA330FFFD2255
:0F081600AD07D2871207267FF812070DC287227F
:10077400AB25AA26A927852882758300120206FFC5
:0F078400AD07D2871207267FFA12070DC2872210
:060665007B007A007948D9
:06066B008B258A26892779
:100671007F02120816E4F5281207740528E528C33D
:10068100941040F47528201207740528E528C394B6
:100691003040F47528101207740528E528C394200A
:1006A10040F47528301207740528E528C3944040AA
:0106B100F454
:0106B2002225
:1002E8008B408A4189428C438D44E5457003020363
:1002F800C014700302039914606F14604B146027D4
:100308001460030203A5AE43AF447C277D1012029C
:1003180067EF2430AB40AA41A942120233AE43AF83
:10032800447C277D108061AE43AF447C037DE81296
:100338000267EF2430AB40AA41A942120233AE4310
:10034800AF447C037DE88040AE43AF447C007D64CD
:10035800120267EF2430AB40AA41A942120233AE21
:1003680043AF447C007D64801FAE43AF447C007D76
:100378000A120267EF2430AB40AA41A942120233A5
:10038800AE43AF447C007D0A1202678C438D4480E3
:1003980017E5442430AB40AA41A9428008AB40AAE3
:1003A80041A9427430120233154574012542F542C1
:0903B800E43541F5410202F22294
:04045F008C438D44F9
:10046300E54570030204F514605B14603514601AEB
:1004730014706EE543C4540FF547754600D39409D1
:10048300E5469400E5474055804FE54375460054E3
:100493000FF547D39409E5469400E54740028039B8
:1004A300803BE543C4F854F0C8E544C4540F487591
:1004B3004600540FF547D39409E5469400E54740B9
:1004C3000280168018754600E544540FF547D3940F
:1004D30009E5469400E5474004243780062430802C
:1004E3000274301202331545740129F9E43AFA0211
:0204F3000463A0
:0104F50022E4
:080076007B007A007948E4FFE9
:06007E008B278A28892966
:10008400EDC454F02FF53C753D00753E00753F2DD1
:10009400AB2AAA2BA92C1201EDFF70030201ECE597
:1000A4003CD3944040030201ECEFB45C117401258D
:1000B4002CF52CE4352BF52BAB2AFA0201C8AB2A1C
:1000C400AA2BA92C1201ED642560030201C40425A6
:1000D4002CF52CE4352BF52BFAA92C1201EDFF6439
:1000E400646005EF6444704A7401252CF52CE435F2
:1000F4002BF52BAB277E00E529253CF9EE3528FAB4
:10010400C003C002C001AB3D053FE53FAA3E7002FB
:10011400053E14F91201EDFD7C00AB2AAA2BA92C93
:100124001201ED24D0F545D001D002D0031202E82B
:10013400807DAB2AAA2BA92C1201EDFF6463600415
:10014400EFB44310AB3D053FE53FAA3E7002053EC8
:1001540014F98072AB2AAA2BA92C1201EDFF647842
:100164006005EF645870717401252CF52CE4352B6F
:10017400F52BAB277E00E529253CF9EE3528FAC09E
:1001840003C002C001AB3D053FE53FAA3E70020536
:100194003E14F91201EDFD7C00AB2AAA2BA92C1206
:1001A40001ED24D0F545D001D002D00312045FAB99
:1001B4002AAA2BA92C1201ED24CF253CF53C80184A
:1001C400AB2AAA2BA92C1201EDAB27AA28A92985B1
:1001D4003C827583001202457401252CF52CE4350C
:0801E4002BF52B053C020094F1
:0101EC0022F0
:1003C100E4F52453D9BF1207937F647E001206B36C
:1003D10012075575E2401207F41206E0752AFF75FF
:1003E1002B00752C3E7B007A007948E4FDFF12005A
:1003F1007E752AFF752B00752C4E7D0112007675D6
:100401002AFF752B00752C5B7D02120076120665A2
:100411001207DF120862120841E4FBFD7F0C12068D
:10042100177F0A7E001206B37B007A00792112053C
:1004310087E52165246022752AFF752B00752C66DE
:1004410085232D85222E85212F7B007A0079487DF9
:0E045100037F0812007E12066585212480CAF2
:0300000002084EA5
:0C084E00787FE4F6D8FD7581870203C1B5
:1001ED00BB010689828A83E0225002E722BBFE0210
:0901FD00E32289828A83E4932243
:10020600BB010CE58229F582E5833AF583E02250AD
:1002160006E92582F8E622BBFE06E92582F8E222F7
:0D022600E58229F582E5833AF583E4932211
:10023300BB010689828A83F0225002F722BBFE01AA
:02024300F322A4
:10024500F8BB010DE58229F582E5833AF583E8F0EF
:10025500225006E92582C8F622BBFE05E92582C89B
:02026500F22283
:10026700BC000BBE0029EF8DF084FFADF022E4CC7B
:10027700F875F008EF2FFFEE33FEEC33FCEE9DEC44
:10028700984005FCEE9DFE0FD5F0E9E4CEFD22ED8A
:10029700F8F5F0EE8420D21CFEADF075F008EF2FD4
:1002A700FFED33FD4007985006D5F0F222C398FDC5
:0502B7000FD5F0EA2262
:1002BC00EF4E6012EF60010EEDBB010B89828A8359
:1002CC00F0A3DFFCDEFA2289F05007F709DFFCA966
:0C02DC00F022BBFEFCF309DFFCA9F022BD
:00000001FF
